:020000040800F2
:1000000000800020450C0008C3020008C50200085B
:1000100000000000000000000000000000000000E0
:10002000000000000000000000000000C7020008FF
:100030000000000000000000C9020008CB02000818
:10004000950C000800000000950C0008950C0008B5
:10005000950C0008950C0008950C0008950C0008FC
:1000600000000000950C0008950C0008950C000895
:10007000950C0008950C0008950C00080000000085
:10008000950C0008950C0008950C0008950C0008CC
:10009000950C0008950C0008950C0008950C0008BC
:1000A000950C0008950C0008950C0008950C0008AC
:0C00B000950C0008950C000800000000F2
:1000BC0010B5064C2378002B07D1054B002B02D032
:1000CC00044800E000BF0123237010BD0C00002089
:1000DC0000000000F00C0008044B10B5002B03D0FE
:1000EC000349044800E000BF10BDC04600000000FA
:1000FC0010000020F00C0008002243088B4274D33F
:10010C0003098B425FD3030A8B4244D3030B8B420C
:10011C0028D3030C8B420DD3FF22090212BA030C15
:10012C008B4202D31212090265D0030B8B4219D3F6
:10013C0000E0090AC30B8B4201D3CB03C01A524116
:10014C00830B8B4201D38B03C01A5241430B8B425E
:10015C0001D34B03C01A5241030B8B4201D30B0347
:10016C00C01A5241C30A8B4201D3CB02C01A52416E
:10017C00830A8B4201D38B02C01A5241430A8B4231
:10018C0001D34B02C01A5241030A8B4201D30B021A
:10019C00C01A5241CDD2C3098B4201D3CB01C01A34
:1001AC00524183098B4201D38B01C01A524143093E
:1001BC008B4201D34B01C01A524103098B4201D32C
:1001CC000B01C01A5241C3088B4201D3CB00C01A99
:1001DC00524183088B4201D38B00C01A5241430811
:1001EC008B4201D34B00C01A5241411A00D2014636
:1001FC00524110467047FFE701B5002000F006F8A9
:10020C0002BDC0460029F7D076E770477047C0465C
:10021C0030B587B01422002101A800F05BFD0F4A15
:10022C0051698020C002014351615369034000931E
:10023C00009B80252D010A4C00222900200000F093
:10024C00A7FC01950123029300230393049301A9B6
:10025C00200000F0C7FB07B030BDC04600100240C4
:10026C000004004810B590B02C22002105A800F025
:10027C0031FD10220021684600F02CFD022304936E
:10028C00013B07930F330893002404A800F034F8C3
:10029C00072300930194029403940021684600F014
:1002AC00BDFA10B010BD10B500F07AFBFFF7DAFF05
:1002BC00FFF7AEFFFEE77047FEE77047704710B5DB
:1002CC0000F07EFB10BD000082B00A4B9969012240
:1002DC001143996199690A400092009ADA69802168
:1002EC0049050A43DA61DB690B400193019B02B0BB
:1002FC007047C0460010024070B582B0041E00D199
:10030C0038E20368DB072BD5B34B5A680C23134038
:10031C00042B1DD0B04B5A680C231340082B0ED065
:10032C006368012B41D0002B56D1AB4B1A68AB49FB
:10033C000A401A601A68AA490A401A603BE0A64BA8
:10034C005B68C02252021340802252029342E7D1D2
:10035C00A14B1B689B0303D56368002B00D10CE2F7
:10036C0023689B0777D59C4B5B680C221A4262D0A2
:10037C00994B5A680C231340082B53D0E368002B7D
:10038C0000D18AE0944A136801210B43136000F0FA
:10039C0023FB0500904B1B689B0775D400F01CFBDE
:1003AC00401B0228F6D90320E5E18B4A1168802313
:1003BC005B020B4313606368002B25D000F00CFB31
:1003CC000500854B1B689B03CAD400F005FB401B42
:1003DC006428F6D90320CEE1052B09D07E4B1A6890
:1003EC007E490A401A601A687D490A401A60E2E7A1
:1003FC00794B19688022D2020A431A60196880224C
:10040C0052020A431A60D6E700F0E6FA0500724B76
:10041C001B689B03A4D500F0DFFA401B6428F6D9B7
:10042C000320A8E16C4B5B68C0225202134080226F
:10043C0012029342A2D1684B1B689B0703D5E36859
:10044C00012B00D09BE164490B68F822934322698D
:10045C00D20013430B6023681B0744D5E369002BC0
:10046C002ED05D4A536A01210B43536200F0B4FA5B
:10047C000500594B5B6A9B0735D400F0ADFA401B65
:10048C000228F6D9032076E153490B68F8229343EE
:10049C002269D20013430B60DDE74F4A1368012138
:1004AC008B43136000F098FA05004B4B1B689B07BD
:1004BC00D1D500F091FA401B0228F6D903205AE15D
:1004CC00454A536A01218B43536200F085FA0500BB
:1004DC00414B5B6A9B0706D500F07EFA401B022855
:1004EC00F6D9032047E123685B0700D480E03A4B40
:1004FC00DB69DB001DD4384AD169802040050143FB
:10050C00D161D36903400193019B0125354B1B68D5
:10051C00DB0510D5A368012B21D0002B36D12E4B37
:10052C001A6A01218A431A621A6A03318A431A62CF
:10053C001AE00025EAE72B4A116880235B000B4385
:10054C00136000F049FA0600264B1B68DB05E1D46A
:10055C0000F042FA801B6428F6D903200BE11E4AF6
:10056C00136A01210B431362A368002B24D000F003
:10057C0033FA0600184B1B6A9B0737D400F02CFA91
:10058C00801B194B9842F5D90320F4E0052B09D0B8
:10059C00114B1A6A01218A431A621A6A03318A437F
:1005AC001A62E1E70C4B1A6A04210A431A621A6AAE
:1005BC0003390A431A62D7E700F00EFA0600064B1D
:1005CC001B6A9B0712D500F007FA801B064B98425A
:1005DC00F5D90320CFE0C04600100240FFFFFEFF1C
:1005EC00FFFFFBFF0070004088130000012D33D08B
:1005FC002368DB0610D56369012B33D0053351D149
:10060C00654A536B04218B435363536BF4318B4317
:10061C00A169C9000B435363236A002B00D1B0E0DE
:10062C005D4A51680C220A40082A00D18AE0022B4C
:10063C004FD0594A136859490B40136000F0CCF95C
:10064C000400554B1B689B017AD500F0C5F9001BC3
:10065C000228F6D903208EE04F4AD36950490B404B
:10066C00D361C5E74C4B5A6B04210A435A635A6B4E
:10067C0003390A435A6300F0AFF90500464B5B6B34
:10068C009B0706D400F0A8F9401B0228F6D90320DA
:10069C0071E041494B6BF8229343A269D20013439A
:1006AC004B63B9E73C4B5A6B04210A435A635A6BB0
:1006BC0003398A435A6300F08FF90500364B5B6BA4
:1006CC009B07A9D500F088F9401B0228F6D9032016
:1006DC0051E0314A136831490B40136000F07CF94A
:1006EC0005002D4B1B689B0106D500F075F9401BCE
:1006FC000228F6D903203EE0274BDA6A0F218A4301
:10070C00E16A0A43DA625A6826490A40A16A606AB9
:10071C0001430A435A601968802252040A431A6042
:10072C0000F05AF904001C4B1B689B0106D400F026
:10073C0053F9001B0228F6D903201CE000201AE014
:10074C00002018E0012B1ED0134B5A68D96AC02325
:10075C005B021340606A834217D10F230B40E16A9E
:10076C008B4214D1F0239B031A40A36A9A4210D1F6
:10077C00002000E0012002B070BD0120FBE7012049
:10078C00F9E70020F7E70120F5E70120F3E7012066
:10079C00F1E70120EFE7C04600100240FFFFFFFE2B
:1007AC00FFFFFFEFFF7FC2FF10B588B004AA174B05
:1007BC0013CB13C21B6813606A46154B13CB13C2C1
:1007CC001B681360134B5A680C231340082B02D080
:1007DC00114808B010BD910C0733194004A8445CB3
:1007EC000C49C96A0B406946C95CC0235B021A40BC
:1007FC0080235B029A4204D00748FFF77DFC6043DC
:10080C00E7E70548FFF778FC6043E2E7080D0008CE
:10081C001C0D00080010024000127A0070B5040094
:10082C000D00002800D17EE0434B1A6801231340D1
:10083C008B420AD240490B68012293432B430B6035
:10084C000B681A40AA4200D06FE023689A070ED5B5
:10085C005B0705D5394A5168E023DB000B43536035
:10086C00364A5368F0218B43A1680B4353602368CD
:10087C00DB072DD56368012B1ED0022B22D02F4A0B
:10088C001268920753D52D494A68032082431343BB
:10089C004B6000F0A1F80600284B5B680C221A4054
:1008AC0063689B009A4213D000F096F8801B244B8F
:1008BC009842F1D9032035E0204A12689203E2D421
:1008CC0001202FE01D4A12689201DCD4012029E09E
:1008DC00194B1A6801231340AB4209D916490B680E
:1008EC00012293432B430B600B681A40AA4220D180
:1008FC0023685B0706D5114A536812490B40E1681F
:10090C000B435360FFF750FF0C4B5A6812090F232F
:10091C0013400D4AD35CD8400C4B1860002000F0FB
:10092C0017F8002070BD0120FCE70120FAE7012038
:10093C00F8E70120F6E7C046002002400010024014
:10094C0088130000FFF8FFFF300D0008080000209E
:10095C0010B504000F4B1978FA208000FFF7CCFB80
:10096C0001000D4B1868FFF7C7FB00F047F9002892
:10097C000DD1032C01D901200AE001300022210005
:10098C00404200F00BF9054B1C60002000E00120F8
:10099C0010BDC0460000002008000020040000200C
:1009AC0010B5064A136810210B4313600020FFF7A3
:1009BC00CFFFFFF789FC002010BDC046002002408D
:1009CC00034A1168034B1B785B1813607047C046D1
:1009DC002800002000000020014B18687047C0461A
:1009EC0028000020F0B5D6464F464646C0B582B02A
:1009FC00002338E0032600E00026A64034003C43E8
:100A0C00023292005C4E94515C4A14684A46D243BE
:100A1C0026004D46AE434D68ED0302D54D462C43A2
:100A2C002600564C26606468260016404D68AD03BF
:100A3C0002D54D462C432600504C6660A468260017
:100A4C0016404D68ED0202D54D462C4326004B4C0A
:100A5C00A660E46822404D68AD0201D54A462243A7
:100A6C00464CE26001330C682200DA407DD0012252
:100A7C009A4025001540A9461442F3D04C68022C2C
:100A8C0001D0122C0ED1DC080834A40027580726FC
:100A9C001E40B6000F25B540AF430D69B5402E0082
:100AAC003E4326500468A4465E000324A246270059
:100ABC00B740B846FF4365464446A543AC464C6830
:100ACC00554625402C00B44065462C4304604C68C8
:100ADC00651E012D03D9112C01D0122C13D1846861
:100AEC003C40A446CC68B44065462C4384604468C2
:100AFC00944322004C682409A446012465462C40EA
:100B0C009C4014434460C26817408A68B2403A4320
:100B1C00C2604A68D200A5D5194CA66901221643B9
:100B2C00A661A46922400192019A9A08941CA4001F
:100B3C00114EA75903241C40A4000F26A640B7430E
:100B4C009026F605B04200D156E70E4EB04208D0C2
:100B5C000D4EB04207D00D4EB04200D14AE70526EB
:100B6C004BE7012649E7022647E702B0E0BCBA464C
:100B7C00B146A846F0BDC04600000140000401404B
:100B8C00001002400004004800080048000C004817
:100B9C00002A01D0816170478162FCE770B50028A2
:100BAC0011DB8308134EC0339B009D590324204056
:100BBC00C000FF2214008440A54389010A408240F2
:100BCC002A439A5170BD0F230340083B9B08063300
:100BDC009B00094A944663445C6803221040C000A1
:100BEC00FC3215008540AC4389010A408240224307
:100BFC005A60E7E700E100E000ED00E001388023F7
:100C0C005B0498420FD2094A50600948036A1B02E0
:100C1C001B0AC02109060B430362002393600733B0
:100C2C001360002070470120FCE7C04610E000E094
:100C3C0000ED00E0704700000D4885460D480E4958
:100C4C000E4A002302E0D458C4500433C4188C421A
:100C5C00F9D30B4A0B4C002301E013600432A2427F
:100C6C00FBD3FFF7E7FF00F011F8FFF71CFBFEE7E3
:100C7C0000800020000000200C000020480D00081F
:100C8C000C0000202C000020FEE7000070B50026B0
:100C9C000C4D0D4C641BA410A64209D1002600F08B
:100CAC0021F80A4D0A4C641BA410A64205D170BD54
:100CBC00B300EB5898470136EEE7B300EB58984772
:100CCC000136F2E7400D0008400D0008400D000809
:100CDC00440D000803008218934200D1704719702C
:100CEC000133F9E7F8B5C046F8BC08BC9E4670471E
:0C0CFC00F8B5C046F8BC08BC9E46704726
:100D080002030405060708090A0B0C0D0E0F101044
:100D1800000000000102030405060708090A0B0C7D
:100D28000D0E0F1000000000000000000000000081
:080D380001020304060708098B
:040D4000E5000008C2
:040D4400BD000008E6
:0C0D4800010000000400000000127A000E
:0400000508000C459E
:00000001FF
